{"abi":[{"type":"constructor","inputs":[{"name":"_owner","type":"address","internalType":"address"}],"stateMutability":"nonpayable"},{"type":"receive","stateMutability":"payable"},{"type":"function","name":"createVaultCelo","inputs":[{"name":"_unlockTime","type":"uint256","internalType":"uint256"}],"outputs":[{"name":"vaultId","type":"uint256","internalType":"uint256"}],"stateMutability":"payable"},{"type":"function","name":"createVaultERC20","inputs":[{"name":"token","type":"address","internalType":"address"},{"name":"amount","type":"uint256","internalType":"uint256"},{"name":"_unlockTime","type":"uint256","internalType":"uint256"}],"outputs":[{"name":"vaultId","type":"uint256","internalType":"uint256"}],"stateMutability":"nonpayable"},{"type":"function","name":"owner","inputs":[],"outputs":[{"name":"","type":"address","internalType":"address"}],"stateMutability":"view"},{"type":"function","name":"userVaults","inputs":[{"name":"","type":"address","internalType":"address"},{"name":"","type":"uint256","internalType":"uint256"}],"outputs":[{"name":"","type":"uint256","internalType":"uint256"}],"stateMutability":"view"},{"type":"function","name":"vaults","inputs":[{"name":"","type":"uint256","internalType":"uint256"}],"outputs":[{"name":"creator","type":"address","internalType":"address"},{"name":"token","type":"address","internalType":"address"},{"name":"amount","type":"uint256","internalType":"uint256"},{"name":"unlockTime","type":"uint256","internalType":"uint256"},{"name":"withdrawn","type":"bool","internalType":"bool"}],"stateMutability":"view"},{"type":"function","name":"withdraw","inputs":[{"name":"vaultId","type":"uint256","internalType":"uint256"}],"outputs":[],"stateMutability":"nonpayable"}],"bytecode":{"object":"0x60a060405234801561000f575f5ffd5b5060405161132938038061132983398181016040528101906100319190610103565b5f73ffffffffffffffffffffffffffffffffffffffff168173ffffffffffffffffffffffffffffffffffffffff161461006a578061006c565b335b73ffffffffffffffffffffffffffffffffffffffff1660808173ffffffffffffffffffffffffffffffffffffffff16815250505061012e565b5f5ffd5b5f73ffffffffffffffffffffffffffffffffffffffff82169050919050565b5f6100d2826100a9565b9050919050565b6100e2816100c8565b81146100ec575f5ffd5b50565b5f815190506100fd816100d9565b92915050565b5f60208284031215610118576101176100a5565b5b5f610125848285016100ef565b91505092915050565b6080516111e36101465f395f6107d701526111e35ff3fe608060405260043610610058575f3560e01c80630503669b1461009c5780632e1a7d4d146100d85780638c64ea4a146101005780638da5cb5b14610140578063980ed8911461016a5780639c841fef1461019a57610098565b36610098576040517f08c379a000000000000000000000000000000000000000000000000000000000815260040161008f90610abd565b60405180910390fd5b5f5ffd5b3480156100a7575f5ffd5b506100c260048036038101906100bd9190610b6c565b6101d6565b6040516100cf9190610bcb565b60405180910390f35b3480156100e3575f5ffd5b506100fe60048036038101906100f99190610be4565b61039f565b005b34801561010b575f5ffd5b5061012660048036038101906101219190610be4565b610759565b604051610137959493929190610c38565b60405180910390f35b34801561014b575f5ffd5b506101546107d5565b6040516101619190610c89565b60405180910390f35b610184600480360381019061017f9190610be4565b6107f9565b6040516101919190610bcb565b60405180910390f35b3480156101a5575f5ffd5b506101c060048036038101906101bb9190610ca2565b610891565b6040516101cd9190610bcb565b60405180910390f35b5f5f8311610219576040517f08c379a000000000000000000000000000000000000000000000000000000000815260040161021090610d2a565b60405180910390fd5b42821161025b576040517f08c379a000000000000000000000000000000000000000000000000000000000815260040161025290610d92565b60405180910390fd5b5f73ffffffffffffffffffffffffffffffffffffffff168473ffffffffffffffffffffffffffffffffffffffff16036102c9576040517f08c379a00000000000000000000000000000000000000000000000000000000081526004016102c090610dfa565b60405180910390fd5b5f8473ffffffffffffffffffffffffffffffffffffffff166323b872dd3330876040518463ffffffff1660e01b815260040161030793929190610e18565b6020604051808303815f875af1158015610323573d5f5f3e3d5ffd5b505050506040513d601f19601f820116820180604052508101906103479190610e77565b905080610389576040517f08c379a000000000000000000000000000000000000000000000000000000000815260040161038090610eec565b60405180910390fd5b610395338686866108bc565b9150509392505050565b5f60015f8381526020019081526020015f2090505f73ffffffffffffffffffffffffffffffffffffffff16815f015f9054906101000a900473ffffffffffffffffffffffffffffffffffffffff1673ffffffffffffffffffffffffffffffffffffffff1603610443576040517f08c379a000000000000000000000000000000000000000000000000000000000815260040161043a90610f54565b60405180910390fd5b805f015f9054906101000a900473ffffffffffffffffffffffffffffffffffffffff1673ffffffffffffffffffffffffffffffffffffffff163373ffffffffffffffffffffffffffffffffffffffff16146104d3576040517f08c379a00000000000000000000000000000000000000000000000000000000081526004016104ca90610fbc565b60405180910390fd5b806003015442101561051a576040517f08c379a000000000000000000000000000000000000000000000000000000000815260040161051190611024565b60405180910390fd5b806004015f9054906101000a900460ff161561056b576040517f08c379a00000000000000000000000000000000000000000000000000000000081526004016105629061108c565b60405180910390fd5b6001816004015f6101000a81548160ff0219169083151502179055505f73ffffffffffffffffffffffffffffffffffffffff16816001015f9054906101000a900473ffffffffffffffffffffffffffffffffffffffff1673ffffffffffffffffffffffffffffffffffffffff160361064c57805f015f9054906101000a900473ffffffffffffffffffffffffffffffffffffffff1673ffffffffffffffffffffffffffffffffffffffff166108fc826002015490811502906040515f60405180830381858888f19350505050158015610646573d5f5f3e3d5ffd5b50610755565b5f816001015f9054906101000a900473ffffffffffffffffffffffffffffffffffffffff1673ffffffffffffffffffffffffffffffffffffffff1663a9059cbb835f015f9054906101000a900473ffffffffffffffffffffffffffffffffffffffff1684600201546040518363ffffffff1660e01b81526004016106d19291906110aa565b6020604051808303815f875af11580156106ed573d5f5f3e3d5ffd5b505050506040513d601f19601f820116820180604052508101906107119190610e77565b905080610753576040517f08c379a000000000000000000000000000000000000000000000000000000000815260040161074a90610eec565b60405180910390fd5b505b5050565b6001602052805f5260405f205f91509050805f015f9054906101000a900473ffffffffffffffffffffffffffffffffffffffff1690806001015f9054906101000a900473ffffffffffffffffffffffffffffffffffffffff1690806002015490806003015490806004015f9054906101000a900460ff16905085565b7f000000000000000000000000000000000000000000000000000000000000000081565b5f5f341161083c576040517f08c379a00000000000000000000000000000000000000000000000000000000081526004016108339061111b565b60405180910390fd5b42821161087e576040517f08c379a000000000000000000000000000000000000000000000000000000000815260040161087590610d92565b60405180910390fd5b61088a335f34856108bc565b9050919050565b6002602052815f5260405f2081815481106108aa575f80fd5b905f5260205f20015f91509150505481565b5f5f5f8154809291906108ce90611166565b9190505590506040518060a001604052808673ffffffffffffffffffffffffffffffffffffffff1681526020018573ffffffffffffffffffffffffffffffffffffffff1681526020018481526020018381526020015f151581525060015f8381526020019081526020015f205f820151815f015f6101000a81548173ffffffffffffffffffffffffffffffffffffffff021916908373ffffffffffffffffffffffffffffffffffffffff1602179055506020820151816001015f6101000a81548173ffffffffffffffffffffffffffffffffffffffff021916908373ffffffffffffffffffffffffffffffffffffffff16021790555060408201518160020155606082015181600301556080820151816004015f6101000a81548160ff02191690831515021790555090505060025f8673ffffffffffffffffffffffffffffffffffffffff1673ffffffffffffffffffffffffffffffffffffffff1681526020019081526020015f2081908060018154018082558091505060019003905f5260205f20015f9091909190915055949350505050565b5f82825260208201905092915050565b7f557365206372656174655661756c7443656c6f282900000000000000000000005f82015250565b5f610aa7601583610a63565b9150610ab282610a73565b602082019050919050565b5f6020820190508181035f830152610ad481610a9b565b9050919050565b5f5ffd5b5f73ffffffffffffffffffffffffffffffffffffffff82169050919050565b5f610b0882610adf565b9050919050565b610b1881610afe565b8114610b22575f5ffd5b50565b5f81359050610b3381610b0f565b92915050565b5f819050919050565b610b4b81610b39565b8114610b55575f5ffd5b50565b5f81359050610b6681610b42565b92915050565b5f5f5f60608486031215610b8357610b82610adb565b5b5f610b9086828701610b25565b9350506020610ba186828701610b58565b9250506040610bb286828701610b58565b9150509250925092565b610bc581610b39565b82525050565b5f602082019050610bde5f830184610bbc565b92915050565b5f60208284031215610bf957610bf8610adb565b5b5f610c0684828501610b58565b91505092915050565b610c1881610afe565b82525050565b5f8115159050919050565b610c3281610c1e565b82525050565b5f60a082019050610c4b5f830188610c0f565b610c586020830187610c0f565b610c656040830186610bbc565b610c726060830185610bbc565b610c7f6080830184610c29565b9695505050505050565b5f602082019050610c9c5f830184610c0f565b92915050565b5f5f60408385031215610cb857610cb7610adb565b5b5f610cc585828601610b25565b9250506020610cd685828601610b58565b9150509250929050565b7f416d6f756e74206d757374206265203e300000000000000000000000000000005f82015250565b5f610d14601183610a63565b9150610d1f82610ce0565b602082019050919050565b5f6020820190508181035f830152610d4181610d08565b9050919050565b7f556e6c6f636b2074696d65206d75737420626520696e206675747572650000005f82015250565b5f610d7c601d83610a63565b9150610d8782610d48565b602082019050919050565b5f6020820190508181035f830152610da981610d70565b9050919050565b7f496e76616c696420746f6b656e206164647265737300000000000000000000005f82015250565b5f610de4601583610a63565b9150610def82610db0565b602082019050919050565b5f6020820190508181035f830152610e1181610dd8565b9050919050565b5f606082019050610e2b5f830186610c0f565b610e386020830185610c0f565b610e456040830184610bbc565b949350505050565b610e5681610c1e565b8114610e60575f5ffd5b50565b5f81519050610e7181610e4d565b92915050565b5f60208284031215610e8c57610e8b610adb565b5b5f610e9984828501610e63565b91505092915050565b7f546f6b656e207472616e73666572206661696c656400000000000000000000005f82015250565b5f610ed6601583610a63565b9150610ee182610ea2565b602082019050919050565b5f6020820190508181035f830152610f0381610eca565b9050919050565b7f5661756c7420646f6573206e6f742065786973740000000000000000000000005f82015250565b5f610f3e601483610a63565b9150610f4982610f0a565b602082019050919050565b5f6020820190508181035f830152610f6b81610f32565b9050919050565b7f4e6f74207661756c742063726561746f720000000000000000000000000000005f82015250565b5f610fa6601183610a63565b9150610fb182610f72565b602082019050919050565b5f6020820190508181035f830152610fd381610f9a565b9050919050565b7f546f6f206561726c7900000000000000000000000000000000000000000000005f82015250565b5f61100e600983610a63565b915061101982610fda565b602082019050919050565b5f6020820190508181035f83015261103b81611002565b9050919050565b7f416c72656164792077697468647261776e0000000000000000000000000000005f82015250565b5f611076601183610a63565b915061108182611042565b602082019050919050565b5f6020820190508181035f8301526110a38161106a565b9050919050565b5f6040820190506110bd5f830185610c0f565b6110ca6020830184610bbc565b9392505050565b7f4e6f2043454c4f2073656e7400000000000000000000000000000000000000005f82015250565b5f611105600c83610a63565b9150611110826110d1565b602082019050919050565b5f6020820190508181035f830152611132816110f9565b9050919050565b7f4e487b71000000000000000000000000000000000000000000000000000000005f52601160045260245ffd5b5f61117082610b39565b91507fffffffffffffffffffffffffffffffffffffffffffffffffffffffffffffffff82036111a2576111a1611139565b5b60018201905091905056fea264697066735822122066f35f3c7330f781173235076465d2e90ac721b6f5727b6b3cbcf700682f9b7d64736f6c634300081e0033","linkReferences":{}},"methodIdentifiers":{"createVaultCelo(uint256)":"980ed891","createVaultERC20(address,uint256,uint256)":"0503669b","owner()":"8da5cb5b","userVaults(address,uint256)":"9c841fef","vaults(uint256)":"8c64ea4a","withdraw(uint256)":"2e1a7d4d"},"id":0}